:020000040800F2
:10000000780600208901000891010008930100088A
:100010009501000897010008990100080000000000
:100020000000000000000000000000009B0100082C
:100030009D010008000000009F010008A1010008C8
:10004000A3010008A3010008A3010008A301000800
:10005000A3010008A3010008A3010008A3010008F0
:10006000A301000845020008A3010008A30100083D
:10007000A3010008A3010008A3010008A3010008D0
:10008000A3010008A3010008A3010008A3010008C0
:10009000A3010008A3010008A3010008A3010008B0
:1000A000A3010008A3010008A3010008A3010008A0
:1000B000550B0008A3010008A3010008A3010008D4
:1000C000A3010008A3010008A3010008A301000880
:1000D000A3010008A3010008A3010008A301000870
:1000E000A3010008A3010008A301000800F002F822
:1000F00000F03AF80AA090E8000C82448344AAF188
:100100000107DA4501D100F02FF8AFF2090EBAE885
:100110000F0013F0010F18BFFB1A43F0010318473B
:10012000080E0000280E0000103A24BF78C878C1DD
:10013000FAD8520724BF30C830C144BF04680C60ED
:10014000704700000023002400250026103A28BF35
:1001500078C1FBD8520728BF30C148BF0B60704739
:100160001FB51FBD10B510BD00F031F81146FFF7E7
:10017000F7FF00F0BFFE00F04FF803B4FFF7F2FF07
:1001800003BC00F057F800000948804709480047C1
:10019000FEE7FEE7FEE7FEE7FEE7FEE7FEE7FEE737
:1001A000FEE7FEE704480549054A064B7047000094
:1001B000ED0A0008ED000008780000207806002015
:1001C000780200207802002070477047704775461B
:1001D00000F02CF8AE4605006946534620F00700B3
:1001E000854618B020B5FFF7DDFFBDE820404FF091
:1001F00000064FF000074FF000084FF0000BAC4630
:10020000ACE8C009ACE8C009ACE8C009ACE8C0097A
:1002100021F007018D46704710B50446AFF300800A
:100220002046BDE81040FFF7A8BF00000048704717
:100230000800002001491820ABBEFEE7260002009E
:100240007047000080B540F60040C4F201004FF452
:10025000805100F08DF943F60000C4F200006121E6
:1002600000F0EAFAFFE743F60000C4F20000802144
:1002700000F0C6FA012801D1FFE7F4E740F600409C
:10028000C4F201004FF4805100F07CF9082000F026
:1002900001F880BD81B00090009840F21441C4F292
:1002A0000101086001B0704782B001900020009009
:1002B00040F20040C4F201000090019880790028CB
:1002C00059D0FFE70198026840F20041C4F20101F1
:1002D0000868904308600198026840F20441C4F243
:1002E000010108689043086001980179009808446A
:1002F000009001980268009908681043086001980E
:10030000026840F20841C4F20101086890430860A5
:100310000198026840F20C41C4F201010868904360
:10032000086001984079102813D1FFE7019802680E
:1003300040F20841C4F201010868104308600198C6
:10034000026840F20C41C4F20101086810430860E1
:1003500010E040F20040C4F20100009001984179A1
:1003600000980844009001980268009908681043BA
:100370000860FFE70BE001980179009808440090BD
:10038000019802680099086890430860FFE702B08E
:100390007047000082B08DF807008DF8061000202D
:1003A00000909DF8060000F0030081000F208840B7
:1003B0000090009B9DF8060000F0FC010822C4F2AA
:1003C00001028858984388509DF807109DF8060050
:1003D00000F003039B0001FA03F300F0FC018858CE
:1003E0001843885002B0704788B0079006910020EB
:1003F0000590049003900290019000900698C078B8
:1004000000F00F0005900698C078C006002806D5B9
:10041000FFE706988178059808430590FFE706985E
:10042000007800284BD0FFE7079800680190002073
:100430000390FFE7039807283DD8FFE703990120C1
:100440008840029006980088029908400490049819
:10045000029988422AD1FFE703988000029002990E
:100460000F208840009000990198884301900598DA
:10047000029900FA01F10198084301900698C078AA
:10048000282806D1FFE70399012088400799486191
:100490000BE00698C078482806D1FFE703990120B1
:1004A000884007990861FFE7FFE7FFE7FFE7039848
:1004B00001300390BEE7019807990860FFE70698AE
:1004C0000088B0F5807F50DBFFE707984068019017
:1004D00000200390FFE70398072842D8FFE703981E
:1004E00000F10801012088400290069800880299D6
:1004F000084004900498029988422DD1FFE70398A0
:100500008000029002990F20884000900099019885
:10051000884301900598029900FA01F10198084377
:1005200001900698C078282808D1FFE7039800F1C9
:1005300008010120884007994861FFE70698C078C4
:10054000482808D1FFE7039800F1080101208840FE
:1005500007990861FFE7FFE7FFE703980130039081
:10056000B9E7019807994860FFE708B070470000B5
:1005700082B00190ADF80210BDF802000199486107
:1005800002B0704782B00190ADF80210BDF80200D1
:100590000199086102B0704782B00190ADF8021075
:1005A0008DF801209DF8010028B1FFE7BDF8020099
:1005B0000199086104E0BDF8020001994861FFE774
:1005C00002B0704780B58CB01020009001210791D7
:1005D00000F0FAF800988DF82F004FF40050ADF8B5
:1005E0002C00032004908DF82E0041F20000C4F28C
:1005F00001000BA90391FFF7F7FE07990420019072
:1006000000F0E2F8009B03990498079A8DF82F30C8
:10061000ADF82C208DF82E0040F60000C4F2010049
:100620000290FFF7E1FE009B02980399049A8DF86F
:100630002F300223ADF82C308DF82E20FFF7D4FE9A
:10064000DDF800C0019B02980399049A8DF82FC031
:10065000ADF82C308DF82E20FFF7C6FE019B0298D6
:100660000399049A8DF82F3008230593ADF82C30A8
:100670008DF82E20FFF7B8FE0799084600F0A4F881
:10068000049900200690FFF785FE0598FFF702FE0B
:100690000599069A07988DF8282009918DF8291058
:1006A0008DF82A0009A8FFF7FFFD0699079809228F
:1006B0008DF820208DF821108DF8230008A800F077
:1006C00003F80CB080BD000084B0039000200290BD
:1006D00001900F2000900398C078C0B3FFE74EF65A
:1006E0000C50CEF200000068C043C0F3022002901C
:1006F0000298C0F10400019000980299C84000904F
:100700000398407801998840029003988078009976
:10071000014002980843029002980001029002985A
:10072000039909784EF20042CEF2000288540398F1
:10073000027802F01F01012088404EF20011CEF233
:10074000000141EAD20121F0030108600FE00398A3
:10075000027802F01F01012088404EF28011CEF293
:10076000000141EAD20121F003010860FFE704B073
:100770007047000081B0009000980021C0F2FA514B
:1007800008434EF60C51CEF20001086001B07047EC
:1007900082B001908DF803109DF8030048B1FFE787
:1007A000019A41F21C01C4F202010868104308607A
:1007B00008E0019A41F21C01C4F20201086890436A
:1007C0000860FFE702B0704782B001908DF8031017
:1007D0009DF8030048B1FFE7019A41F21801C4F205
:1007E000020108681043086008E0019A41F218010C
:1007F000C4F20201086890430860FFE702B0704746
:1008000082B00190ADF8021000208DF8010001982F
:100810000089BDF802100840000420B1FFE7012064
:100820008DF8010003E000208DF80100FFE79DF83E
:10083000010002B07047000082B00190ADF80210D4
:10084000BDF802000199888102B0704780B58CB074
:10085000082001210591FFF7B7FF10208DF81B003C
:100860004FF48050ADF81800032001908DF81A0065
:1008700040F60040C4F20100029006A90391FFF780
:10088000B3FD019A02980399182300938DF81B3049
:100890004FF40053ADF818308DF81A20FFF7A4FD7F
:1008A000019A0298039904238DF81B304FF480437A
:1008B0000493ADF818308DF81A20FFF795FD009BD2
:1008C000019A029803998DF81B304FF40043ADF85C
:1008D00018308DF81A20FFF787FD04980599FFF767
:1008E00057FF2020ADF828000020ADF82400ADF817
:1008F0002200ADF82000ADF81C00ADF82A004FF43E
:100900008270ADF81E004FF40070ADF826000CB0F8
:1009100080BD000080B588B000F09CF9A8B9FFE761
:1009200040F60000C4F20100069001221146FFF7D4
:1009300033FE0698022100220792FFF72DFE06984B
:10094000079A0421FFF728FEFFE700F083F901284A
:1009500016D1FFE740F60000C4F201000490012127
:10096000039100220592FFF717FE039A04980221D3
:10097000FFF712FE0498059A0421FFF70DFEFFE72A
:1009800000F068F9022816D1FFE740F60000C4F233
:10099000010001900121029100220092FFF7FCFD6D
:1009A000009A01980221FFF7F7FD0198029A0421AD
:1009B000FFF7F2FDFFE700F08DF908B080BD000001
:1009C00080B500F001F880BD84B000200390029053
:1009D00041F20001C4F20201086840F4803008606E
:1009E000FFE741F20000C4F20200006800F40030AA
:1009F0000290039801300390FFE7029900200190D4
:100A000039B9FFE70398B0F5A06018BF0120019045
:100A1000FFE70198C0070028E3D1FFE741F200009B
:100A2000C4F2020000688003002803D5FFE701201C
:100A3000029002E000200290FFE70298012851D1C5
:100A4000FFE742F20001C4F20201086840F0100022
:100A50000860086820F007000860086840F002009D
:100A6000086041F20401C4F20201009108680860C4
:100A700008680860086840F480600860086820F42E
:100A80007C100860086840F4E810086041F200013A
:100A9000C4F20201086840F080700860FFE741F28C
:100AA0000000C4F2020000688001002801D4FFE7C2
:100AB000F5E741F20401C4F20201086820F00300E6
:100AC0000860086840F002000860FFE741F2040097
:100AD000C4F20200006800F00C00082801D0FFE713
:100AE000F4E700E0FFE704B07047000080B541F292
:100AF0000002C4F20202106840F00100106041F2EE
:100B00000401C4F2020108680023CFF6FF03184075
:100B1000086010684FF6FF73CFF6F6631840106058
:100B2000106820F480201060086820F4FE0008603F
:100B300041F20801C4F202014FF41F000860FFF700
:100B40003FFF4EF60851CEF200014FF00060086002
:100B500080BD000080B582B04FF08040012100F0E0
:100B6000EBF840F26A01C2F2000108880130088007
:100B700040F26800C2F2000000780146019140B1E5
:100B8000FFE70198012824D0FFE70198022840D010
:100B90005EE040F26A00C2F20000008840F26C01A0
:100BA000C2F200010988884212D1FFE740F26A01CF
:100BB000C2F200010020088040F20001C2F20001F0
:100BC000087040F26801C2F2000101200870FFE7DE
:100BD0003EE040F26A00C2F20000008840F26E017E
:100BE000C2F200010988884212D1FFE740F26A018F
:100BF000C2F200010020088040F20001C2F20001B0
:100C0000087040F26801C2F2000102200870FFE79C
:100C10001EE040F26A00C2F20000008840F270015B
:100C2000C2F200010988884211D1FFE740F26A014F
:100C3000C2F200010020088040F20001C2F200016F
:100C4000087040F26801C2F200010870FFE7FFE798
:100C500002B080BD40F26800C2F200000078704728
:100C600040F20000C2F200000078704780B586B004
:100C7000012101910846FFF78BFD0020ADF80A0025
:100C80004FF47A70ADF80C004720ADF808004FF033
:100C90008040009002A900F08BF80098019A11465C
:100CA00000F06CF80098019900F03AF8009801996A
:100CB00000F04EF84FF4A060FFF75CFD01981C2196
:100CC0008DF814108DF8170005A8FFF7FDFC06B08D
:100CD00080BD000040F20001C2F200010120087056
:100CE0007047000082B0ADF80600ADF80410ADF812
:100CF0000220BDF8060040F26C01C2F2000108803B
:100D0000BDF8040040F26E01C2F200010880BDF897
:100D1000020040F27001C2F20001088002B0704788
:100D200082B00190ADF80210BDF80200C0430199F5
:100D3000088202B07047000082B00190ADF8021046
:100D4000BDF80200C0430199088202B0704700005C
:100D500082B001908DF803109DF8030030B1FFE7D9
:100D60000199088840F00100088005E00199088891
:100D700020F001000880FFE702B0704782B00190C8
:100D8000ADF802108DF801209DF8010038B1FFE7A1
:100D9000BDF80220019988891043888106E0BDF8DA
:100DA00002200199888990438881FFE702B070474B
:100DB00083B0029001910020ADF8020002980088F3
:100DC000ADF80200029842F60041C4F201018842E7
:100DD00025D0FFE7029843F20041C4F201018842A6
:100DE0001DD0FFE70298B0F1804F18D0FFE70298BE
:100DF00040F20041C4F20001884210D0FFE702989F
:100E000040F60001C4F20001884208D0FFE70298D2
:100E100040F60041C4F2000188420ED1FFE7BDF860
:100E2000020020F07000ADF8020001984188BDF882
:100E300002000843ADF80200FFE7029841F200010A
:100E4000C4F20001884216D0FFE7029841F2004147
:100E5000C4F2000188420ED0FFE7BDF8020020F482
:100E60004070ADF802000198C188BDF80200084347
:100E7000ADF80200FFE7BDF8020002990880019872
:100E800080880299888501980088029908850298CF
:100E900042F60041C4F20101884220D0FFE70298E7
:100EA00043F20041C4F20101884218D0FFE70298E2
:100EB00044F20001C4F20101884210D0FFE7029819
:100EC00044F20041C4F20101884208D0FFE70298D1
:100ED00044F60001C4F20101884205D1FFE7019800
:100EE000007A02990886FFE702990120888203B000
:100EF0007047000080B582B000200190FFF762FBD0
:100F0000012044F620621146FFF7ECFEFFF7AEFE2B
:100F1000FFF79CFCFFE7FFF7A3FE18B9FFE7FFF719
:100F2000F9FCFFE7F7E70000480F00080000002089
:100F300004000000280100084C0F000808000020F1
:0C0F4000700600004401000801000000E1
:040000050800018965
:00000001FF
