:020000040800F2
:10000000980600208901000891010008930100086A
:100010009501000897010008990100080000000000
:100020000000000000000000000000009B0100082C
:100030009D010008000000009F010008A1010008C8
:10004000A3010008A3010008A3010008A301000800
:10005000A3010008A3010008A3010008A3010008F0
:10006000A301000835030008A3010008A30100084C
:10007000A3010008A3010008A3010008A3010008D0
:10008000A3010008A3010008A3010008A3010008C0
:10009000A3010008A3010008A3010008A3010008B0
:1000A000A3010008A3010008A3010008A3010008A0
:1000B00001100008A3010008A3010008A301000823
:1000C000A3010008A3010008A3010008A301000880
:1000D000A3010008A3010008A3010008A301000870
:1000E000A3010008A3010008A301000800F002F822
:1000F00000F03AF80AA090E8000C82448344AAF188
:100100000107DA4501D100F02FF8AFF2090EBAE885
:100110000F0013F0010F18BFFB1A43F0010318473B
:100120007013000090130000103A24BF78C878C103
:10013000FAD8520724BF30C830C144BF04680C60ED
:10014000704700000023002400250026103A28BF35
:1001500078C1FBD8520728BF30C148BF0B60704739
:100160001FB51FBD10B510BD00F0A9F81146FFF76F
:10017000F7FF01F02DF900F0C7F803B4FFF7F2FF25
:1001800003BC00F0CFF80000094880470948004749
:10019000FEE7FEE7FEE7FEE7FEE7FEE7FEE7FEE737
:1001A000FEE7FEE704480549054A064B7047000094
:1001B000990F0008ED000008980000209806002024
:1001C000980200209802002053EA020C00F0698097
:1001D0002DE9F04B4FF00006002B1FBFB3FA83F55B
:1001E00003FA05F424FA05F65E4012BF1643B2FA8C
:1001F00082F502FA05F4C5F120051EBF22FA05FCBE
:1002000044EA0C04203556EA044C4FEA144418BF63
:10021000641C4FF000084FF00009904271EB030C92
:1002200039D3002919BFB1FA81F701FA07F6B0FAFC
:1002300080F700FA07F6C7F120071EBF20FA07FC77
:1002400046EA0C062037B6FBF4FCA7EB0507103F87
:1002500007F01F0BCBF120062CFA06F60CFA0BFB6D
:1002600044BFB3460026202FA4BF5E464FF0000BCC
:100270005BEA060C08BF4FF0010B19EB0B0948EBCA
:100280000608ABFB027C06FB02CC0BFB03CCC01BBD
:1002900071EB0C01C1E70B46024641464846BDE8FA
:1002A000F08B13B5084318BF4FF0FF300146AFF392
:1002B0000080BDE81C407047704770477047754626
:1002C00000F02CF8AE4605006946534620F00700C2
:1002D000854618B020B5FFF765FFBDE820404FF018
:1002E00000064FF000074FF000084FF0000BAC463F
:1002F000ACE8C009ACE8C009ACE8C009ACE8C0098A
:1003000021F007018D46704710B50446AFF3008019
:100310002046BDE81040FFF730BF0000004870479E
:100320000800002001491820ABBEFEE726000200AD
:100330007047000080B540F60040C4F201004FF461
:10034000805100F08DF943F60000C4F200006121F5
:1003500000F0DEFCFFE743F60000C4F2000080215D
:1003600000F0B4FC012801D1FFE7F4E740F60040BB
:10037000C4F201004FF4805100F07CF9082000F035
:1003800001F880BD81B00090009840F21441C4F2A1
:100390000101086001B0704782B001900020009018
:1003A00040F20040C4F201000090019880790028DA
:1003B00059D0FFE70198026840F20041C4F2010100
:1003C0000868904308600198026840F20441C4F252
:1003D0000101086890430860019801790098084479
:1003E000009001980268009908681043086001981D
:1003F000026840F20841C4F20101086890430860B5
:100400000198026840F20C41C4F20101086890436F
:10041000086001984079102813D1FFE7019802681D
:1004200040F20841C4F201010868104308600198D5
:10043000026840F20C41C4F20101086810430860F0
:1004400010E040F20040C4F20100009001984179B0
:1004500000980844009001980268009908681043C9
:100460000860FFE70BE001980179009808440090CC
:10047000019802680099086890430860FFE702B09D
:100480007047000082B08DF807008DF8061000203C
:1004900000909DF8060000F0030081000F208840C6
:1004A0000090009B9DF8060000F0FC010822C4F2B9
:1004B00001028858984388509DF807109DF806005F
:1004C00000F003039B0001FA03F300F0FC018858DD
:1004D0001843885002B0704788B0079006910020FA
:1004E0000590049003900290019000900698C078C7
:1004F00000F00F0005900698C078C006002806D5C9
:10050000FFE706988178059808430590FFE706986D
:10051000007800284BD0FFE7079800680190002082
:100520000390FFE7039807283DD8FFE703990120D0
:100530008840029006980088029908400490049828
:10054000029988422AD1FFE703988000029002991D
:100550000F208840009000990198884301900598E9
:10056000029900FA01F10198084301900698C078B9
:10057000282806D1FFE703990120884007994861A0
:100580000BE00698C078482806D1FFE703990120C0
:10059000884007990861FFE7FFE7FFE7FFE7039857
:1005A00001300390BEE7019807990860FFE70698BD
:1005B0000088B0F5807F50DBFFE707984068019026
:1005C00000200390FFE70398072842D8FFE703982D
:1005D00000F10801012088400290069800880299E5
:1005E000084004900498029988422DD1FFE70398AF
:1005F0008000029002990F20884000900099019895
:10060000884301900598029900FA01F10198084386
:1006100001900698C078282808D1FFE7039800F1D8
:1006200008010120884007994861FFE70698C078D3
:10063000482808D1FFE7039800F10801012088400D
:1006400007990861FFE7FFE7FFE703980130039090
:10065000B9E7019807994860FFE708B070470000C4
:1006600082B00190ADF80210BDF802000199486116
:1006700002B0704782B00190ADF80210BDF80200E0
:100680000199086102B0704780B58CB010200190CC
:100690000121079100F0E8FA01988DF82F004FF43E
:1006A0000050ADF82C00032004908DF82E0041F28C
:1006B0000000C4F201000BA90391FFF70DFF079999
:1006C0000420009000F0D0FA019B03990498079A47
:1006D0008DF82F30ADF82C208DF82E0040F600005C
:1006E000C4F201000290FFF7F7FE019B0298039904
:1006F000049A8DF82F300223ADF82C308DF82E207F
:10070000FFF7EAFE009BDDF804C002980399049A03
:100710008DF82FC0ADF82C308DF82E20FFF7DCFEC1
:10072000009B02980399049A8DF82F3008230593B3
:10073000ADF82C308DF82E20FFF7CEFE019B0298ED
:100740000399049A8DF82F304FF48073ADF82C3054
:100750008DF82E20FFF7C0FE0799084600F084FAB6
:10076000049900200690FFF78DFE0598FFF70AFE1A
:100770000599069A07988DF8282009918DF8291077
:100780008DF82A0009A8FFF707FE069907980922A5
:100790008DF820208DF821108DF8230008A800F096
:1007A000E3F90CB080BD000080B584B002900298DF
:1007B000012100F0CDF800F00300032804D1FFE789
:1007C00001208DF80F0018E002980121812200F02D
:1007D00083F902981D21722200F07EF902980D2102
:1007E0000022019200F078F9019A0298222100F08B
:1007F00073F901988DF80F00FFE79DF80F0004B022
:1008000080BD000080B584B0029064208DF80700A0
:1008100002980121832200F05FF9FFE7029812217C
:1008200000F096F80007002811D4FFE79DF80700B4
:1008300001388DF80700000640B9FFE7012000905D
:1008400000F05EFC00988DF80F0009E0E6E70298E2
:100850001221082200F040F900208DF80F00FFE778
:100860009DF80F0004B080BD80B588B00690069852
:10087000016848680988FFF7F3FE0A20049000F039
:100880003FFC0698016848680988FFF7F3FE049862
:1008900000F036FC0698422100F05AF88DF8170057
:1008A0009DF81700122804D0FFE701208DF81F00E3
:1008B0004AE0069801210291802200F00DF9029988
:1008C0000698122200F008F90299069800F040F804
:1008D0008DF817000698037941F27042C0F60002C5
:1008E00002EBC30152F833204B6800F08FF80698F2
:1008F0000E210022039200F0EFF8039A06980F21D0
:1009000000F0EAF806980C21019100F021F8019915
:100910008DF8170006989DF8172042F0030200F0AA
:10092000DBF806982621042200F0D6F80698092163
:100930008F2200F0D1F802990698812200F0CCF8BD
:1009400003988DF81F00FFE79DF81F0008B080BDD9
:1009500080B582B001908DF803109DF8030000F07F
:100960007F008DF8020000208DF8010040F6004065
:10097000C4F201004FF48051FFF772FEFFE743F627
:100980000000C4F20000022100F0A0F9012801D00B
:10099000FFE7F4E79DF8021043F60000C4F2000000
:1009A00000F0B6F9FFE743F60000C4F200000221B0
:1009B00000F08CF9012801D0FFE7F4E743F60000CE
:1009C000C4F20000FE2100F0A3F9FFE743F60000A7
:1009D000C4F20000012100F079F9012801D0FFE7FD
:1009E000F4E743F60000C4F2000000F08BF98DF844
:1009F000010040F60040C4F201004FF48051FFF7BF
:100A000039FE9DF8010002B080BD000080B586B0BF
:100A100005900393029202980399C90441EA503168
:100A2000C00444F60002C0F2E8120023FFF7CCFB3A
:100A30000191009005989DF80220062100F04CF8E5
:100A400005989DF80120072100F046F805989DF8CB
:100A50000020082100F040F806B080BD80B584B0C9
:100A6000039002918DF8072003982221FFF770FF71
:100A70008DF806009DF806009DF807100844B0F5B3
:100A8000807F07DBFFE79DF80600C0F1FF008DF8CF
:100A90000700FFE700200090FFE700989DF807108F
:100AA00088420CDAFFE703980299009A8A5C0021D9
:100AB00000F012F8FFE7009801300090EDE703988E
:100AC0009DF806109DF807201144CAB2222100F0BB
:100AD00003F804B080BD000080B582B001908DF8AD
:100AE00003108DF802209DF8030040F080008DF87F
:100AF000010040F60040C4F201004FF48051FFF7BE
:100B0000AFFDFFE743F60000C4F20000022100F051
:100B1000DDF8012801D0FFE7F4E79DF8011043F666
:100B20000000C4F2000000F0F3F8FFE743F6000015
:100B3000C4F20000022100F0C9F8012801D0FFE74B
:100B4000F4E79DF8021043F60000C4F2000000F044
:100B5000DFF840F60040C4F201004FF48051FFF787
:100B600089FD02B080BD000084B003900020029097
:100B700001900F2000900398C078C0B3FFE74EF6B5
:100B80000C50CEF200000068C043C0F30220029077
:100B90000298C0F10400019000980299C8400090AA
:100BA00003984078019988400290039880780099D2
:100BB00001400298084302900298000102900298B6
:100BC000039909784EF20042CEF20002885403984D
:100BD000027802F01F01012088404EF20011CEF28F
:100BE000000141EAD20121F0030108600FE00398FF
:100BF000027802F01F01012088404EF28011CEF2EF
:100C0000000141EAD20121F003010860FFE704B0CE
:100C10007047000081B0009000980021C0F2FA51A6
:100C200008434EF60C51CEF20001086001B0704747
:100C300082B001908DF803109DF8030048B1FFE7E2
:100C4000019A41F21C01C4F20201086810430860D5
:100C500008E0019A41F21C01C4F2020108689043C5
:100C60000860FFE702B0704782B001908DF8031072
:100C70009DF8030048B1FFE7019A41F21801C4F260
:100C8000020108681043086008E0019A41F2180167
:100C9000C4F20201086890430860FFE702B07047A1
:100CA00082B001908DF803109DF8030030B1FFE78A
:100CB0000199088840F04000088005E00199088803
:100CC00020F040000880FFE702B0704782B001903A
:100CD000ADF8021000208DF8010001980089BDF8E0
:100CE00002100840000420B1FFE701208DF8010048
:100CF00003E000208DF80100FFE79DF8010002B03D
:100D00007047000081B000900098808901B0704762
:100D100082B00190ADF80210BDF8020001998881FF
:100D200002B0704783B0029001910020ADF802003C
:100D300002980088ADF80200BDF8020000F44150AE
:100D4000ADF80200019908884A8810438A88104348
:100D5000CA8810430A8910434A8910438A8910437C
:100D6000C9890143BDF802000843ADF80200BDF88F
:100D70000200029908800299888B20F40060888321
:100D80000198008A0299088203B0704780B58EB03E
:100D9000082001210791FFF767FF102005908DF8CB
:100DA00023004FF48050ADF82000032001908DF80F
:100DB000220040F60040C4F20100029008A903910D
:100DC000FFF78AFB019A02980399182300938DF884
:100DD00023304FF40053ADF820308DF82220FFF778
:100DE0007BFB019A0298039904238DF823304FF47A
:100DF00080430493ADF820308DF82220FFF76CFB80
:100E0000009B019A029803998DF823304FF4004318
:100E1000ADF820308DF82220FFF75EFB049807998B
:100E2000FFF706FF0598ADF830000020ADF82C0064
:100E3000ADF82A00ADF82800ADF82400ADF8320076
:100E40004FF48270ADF826004FF40070ADF82E001C
:100E500043F60000C4F20000069009A9FFF762FF04
:100E600006980799FFF71CFF0EB080BD80B500F013
:100E700001F880BD84B000200390029041F200018F
:100E8000C4F20201086840F480300860FFE741F2D4
:100E90000000C4F20200006800F4003002900398E1
:100EA00001300390FFE702990020019039B9FFE774
:100EB0000398B0F5A06018BF01200190FFE70198EA
:100EC000C0070028E3D1FFE741F20000C4F20200AE
:100ED00000688003002803D5FFE70120029002E0AC
:100EE00000200290FFE70298012851D1FFE742F26B
:100EF0000001C4F20201086840F0100008600868B0
:100F000020F007000860086840F00200086041F225
:100F10000401C4F2020100910868086008680860D2
:100F2000086840F480600860086820F47C1008605D
:100F3000086840F4E810086041F20001C4F20201C0
:100F4000086840F080700860FFE741F20000C4F2DA
:100F5000020000688001002801D4FFE7F5E741F2B4
:100F60000401C4F20201086820F003000860086868
:100F700040F002000860FFE741F20400C4F2020002
:100F8000006800F00C00082801D0FFE7F4E700E05B
:100F9000FFE704B07047000080B541F20002C4F2E0
:100FA0000202106840F00100106041F20401C4F236
:100FB000020108680023CFF6FF031840086010689C
:100FC0004FF6FF73CFF6F66318401060106820F4F8
:100FD00080201060086820F4FE00086041F20801DB
:100FE000C4F202014FF41F000860FFF73FFF4EF606
:100FF0000851CEF200014FF00060086080BD000093
:1010000080B582B04FF08040012100F003F940F23A
:101010006A01C2F2000108880130088040F26800CD
:10102000C2F2000000780146019140B1FFE701984B
:10103000012824D0FFE70198022840D05EE040F26A
:101040006A00C2F20000008840F26C01C2F20001A6
:101050000988884212D1FFE740F26A01C2F200011A
:101060000020088040F20001C2F20001087040F246
:101070006801C2F2000101200870FFE73EE040F283
:101080006A00C2F20000008840F26E01C2F2000164
:101090000988884212D1FFE740F26A01C2F20001DA
:1010A0000020088040F20001C2F20001087040F206
:1010B0006801C2F2000102200870FFE71EE040F262
:1010C0006A00C2F20000008840F27001C2F2000122
:1010D0000988884211D1FFE740F26A01C2F200019B
:1010E0000020088040F20001C2F20001087040F2C6
:1010F0006801C2F200010870FFE7FFE702B080BD9F
:1011000081B000904EF21401CEF2000141F63F1082
:10111000C0F2010008604EF21801CEF2000100207A
:1011200008604EF21001CEF2000105200860FFE7D2
:10113000009878B1FFE7FFE74EF21000CEF2000012
:101140000068C003002801D4FFE7F5E700980138E4
:101150000090EDE701B0704780B586B001210191A4
:101160000846FFF765FD0020ADF80A004FF47A70DD
:10117000ADF80C004720ADF808004FF0804000901B
:1011800002A900F083F80098019A114600F064F873
:101190000098019900F032F80098019900F046F8A3
:1011A0004FF4A060FFF736FD01981C218DF8141054
:1011B0008DF8170005A8FFF7D7FC06B080BD00002A
:1011C00082B0ADF80600ADF80410ADF80220BDF80D
:1011D000060040F26C01C2F200010880BDF8040074
:1011E00040F26E01C2F200010880BDF8020040F238
:1011F0007001C2F20001088002B0704782B0019015
:10120000ADF80210BDF80200C0430199088202B097
:101210007047000082B00190ADF80210BDF80200E6
:10122000C0430199088202B07047000082B001906B
:101230008DF803109DF8030030B1FFE7019908888D
:1012400040F00100088005E00199088820F00100C5
:101250000880FFE702B0704782B00190ADF802103D
:101260008DF801209DF8010038B1FFE7BDF802209C
:10127000019988891043888106E0BDF80220019910
:10128000888990438881FFE702B0704783B002905D
:1012900001910020ADF8020002980088ADF802002C
:1012A000029842F60041C4F20101884225D0FFE7CE
:1012B000029843F20041C4F2010188421DD0FFE7C9
:1012C0000298B0F1804F18D0FFE7029840F2004139
:1012D000C4F20001884210D0FFE7029840F60001F6
:1012E000C4F20001884208D0FFE7029840F60041AE
:1012F000C4F2000188420ED1FFE7BDF8020020F0E1
:101300007000ADF8020001984188BDF80200084362
:10131000ADF80200FFE7029841F20001C4F20001BB
:10132000884216D0FFE7029841F20041C4F2000162
:1013300088420ED0FFE7BDF8020020F44070ADF8FF
:1013400002000198C188BDF802000843ADF8020010
:10135000FFE7BDF802000299088001988088029991
:1013600088850198008802990885029842F6004114
:10137000C4F20101884220D0FFE7029843F2004105
:10138000C4F20101884218D0FFE7029844F200013C
:10139000C4F20101884210D0FFE7029844F20041F4
:1013A000C4F20101884208D0FFE7029844F6000128
:1013B000C4F20101884205D1FFE70198007A029941
:1013C0000886FFE702990120888203B07047000079
:1013D00080B584B00020039048218DF80B1040F2B6
:1013E0007C02C2F2000240F60041C4F201015161E8
:1013F0004FF48051118240F60001C4F201015160A6
:101400004FF48071118040F27401C2F200010A6051
:101410000871FFF739F9FFF7B9FC42F21072104674
:101420001146FFF7CDFEFFF797FEFFE740F274008D
:10143000C2F20000FFF718FA08B1FFE7F6E7FFE78E
:1014400040F27400C2F200000190FFF7ADF901987C
:101450000DF10B010122FFF701FB0198FFF7D2F913
:101460004FF47A70FFF74CFEEAE70000000000003E
:10147000400ECF190000000040DA8E33000000005B
:10148000801C9E3300000000C05EAD3300000000F1
:10149000B01400080000002004000000280100082B
:1014A000B414000808000020900600004401000861
:0414B0000100000037
:040000050800018965
:00000001FF
